:020000040800F2
:1000000060F00020FD01000805020008070200085A
:10001000090200080B0200080D02000800000000A1
:100020000000000000000000000000000F020008B7
:100030001102000800000000130200081502000869
:10004000B5720008B5720008B5720008B5720008F4
:10005000B5720008B5720008B5720008B5720008E4
:10006000B5720008B5720008B5720008B5720008D4
:10007000B5720008B5720008B5720008B5720008C4
:10008000B5720008B5720008B5720008B5720008B4
:10009000B5720008B5720008B5720008B5720008A4
:1000A000B5720008B5720008B5720008B572000894
:1000B000B5720008B5720008B5720008B572000884
:1000C000B5720008B5720008B5720008B572000874
:1000D000B5720008B5720008B5720008B572000864
:1000E000B5720008B5720008B5720008B572000854
:1000F000B5720008B5720008B5720008B572000844
:10010000B5720008B5720008B5720008B572000833
:10011000B5720008B5720008B5720008B572000823
:10012000B5720008B5720008B5720008B572000813
:1001300000F002F800F052F80AA090E8000C8244A7
:100140008344AAF10107DA4501D100F047F8AFF284
:10015000090EBAE80F0013F0010F18BFFB1A43F0A5
:10016000010318472CED04004CED0400103A24BFA5
:1001700078C878C1FAD8520724BF30C830C144BF0C
:1001800004680C607047000000230024002500264E
:10019000103A28BF78C1FBD8520728BF30C148BFEA
:1001A0000B60704764290EF04B8478290EF084842C
:1001B00073290FF08480002070471FB59DE803006D
:1001C0000FF004F90FF07AFB0400002000210FF07B
:1001D000D5FB401C60601FBD10B510BD0FF018FBB3
:1001E0001146FFF7EAFF00F029F80FF059FB03B4BE
:1001F000FFF7F2FF03BC0FF093FB000009488047B4
:1002000009480047FEE7FEE7FEE7FEE7FEE7FEE7F8
:10021000FEE7FEE7FEE7FEE704480549054A064B10
:1002200070470000355400083101000860C6002006
:1002300060F0002060DB002060DB002002F07DFC2D
:1002400001F005FF0A4A40F6B831022008F05BF8D9
:10025000084A4FF4FA61032008F055F8064A0121D4
:10026000002007F0E4FF01E003F03AF8FCE70000AB
:10027000D397000839340008658300089F488069D7
:1002800040F010009D4988619D48006800209C490D
:1002900008600846006840F0333008600846C068CF
:1002A00040F0FF00C86070479549C968012282404C
:1002B0009143934AD16070479148C06820F0FF0095
:1002C0008F49C86070478E49C96801228240114336
:1002D0008B4AD16070478A48C06840F0FF00884967
:1002E000C860704710B504460A2094FBF0F100FB8B
:1002F00011400A281AD2DFE800F0051A23354756C4
:10030000687D89A1FFF7E7FF0020FFF7CDFF0120FF
:10031000FFF7CAFF0220FFF7C7FF0320FFF7C4FF64
:100320000420FFF7C1FF0520FFF7BEFF9BE0FFF7AA
:10033000D2FF0120FFF7B8FF0220FFF7B5FF92E0E0
:10034000FFF7C9FF0020FFF7AFFF0120FFF7ACFF69
:100350000320FFF7A9FF0420FFF7A6FF0620FFF701
:10036000A3FF80E0FFF7B7FF0020FFF79DFF01200C
:10037000FFF79AFF0220FFF797FF0320FFF794FF94
:100380000620FFF791FF6EE0FFF7A5FF0120FFF7C2
:100390008BFF0220FFF788FF0520FFF785FF06206F
:1003A000FFF782FF5FE0FFF796FF0020FFF77CFF7B
:1003B0000220FFF779FF0320FFF776FF0520FFF704
:1003C00073FF0620FFF770FF4DE0FFF784FF00206A
:1003D000FFF76AFF0220FFF767FF0320FFF764FFC4
:1003E0000420FFF761FF0520FFF75EFF0620FFF7FF
:1003F0005BFF38E0FFF76FFF0020FFF755FF01209C
:10040000FFF752FF0220FFF74FFF2CE0FFF763FFDB
:100410000020FFF749FF0120FFF746FF0220FFF70A
:1004200043FF0320FFF740FF0420FFF73DFF0520B7
:10043000FFF73AFF0620FFF737FF14E0FFF74BFF07
:100440000020FFF731FF0120FFF72EFF0220FFF70A
:100450002BFF0320FFF728FF0520FFF725FF0620CD
:10046000FFF722FF00BF00BF10BD00B52548007890
:10047000092809D023480078FFF734FF2148007885
:10048000401C2049087006E01E480078FFF72AFF4C
:1004900000201C49087000BD10B50446482005F036
:1004A00009F82046FFF71EFF07E0641E4FF47A703C
:1004B00005F037F82046FFF715FF002CF5DC10BDDE
:1004C00010B51148007840B9FFF7F6FE0FA005F00F
:1004D000E4FE01200C4908700BE00B48007801286D
:1004E00007D1FFF7F8FE0DA005F0D7FE0020064962
:1004F00008704FF4FA7005F014F810BD00100240B7
:100500000010014000000020010000204C4544B5CF
:10051000C6D2D1BFAAC6F4A3A10000004C4544B581
:10052000C6D2D1B9D8B1D5A3A100000030488069A6
:1005300040F008002E4988612E48006800202D49AF
:1005400008600846006840F44010086029480C30F4
:10055000006840F0200027490C31086070472548AA
:100560000C30006820F0200022490C3108607047F0
:1005700020480C30006840F020001E490C31086013
:10058000704710B54FF47A74482004F093FF0AE0E6
:10059000FFF7E5FF204604F0A1FFFFF7E9FF204643
:1005A000641E04F09BFF2000A4F10104F0D110BDF3
:1005B00010B5482004F07EFF002415E00D480C30F3
:1005C000006840F020000B490C310860012004F065
:1005D000A8FF08480C300068002006490C3108606C
:1005E000012004F09EFF641CB4F57A7FE6DB10BDA9
:1005F00000100240000C01402DE9F0470025AA261A
:100600002F46B046A946002425210A200EF09EF967
:10061000FE4908600846006808B9BDE8F087FB4855
:100620000468F81D85B208F13F0086B24FF000095A
:100630000FE06580A68005F11200E08006F11E0043
:10064000208105F1170085B20A3409F1010000F09C
:10065000FF09B9F10A0FECDB07F1110085B208F1CF
:10066000620086B24FF000090FE06580A68005F1B8
:100670001200E08006F11E00208105F1170085B20E
:100680000A3409F1010000F0FF09B9F1090FECDBB0
:1006900007F1280085B208F1850086B24FF0000905
:1006A0000FE06580A68005F11200E08006F11E00D3
:1006B000208105F1170085B20A3409F1010000F02C
:1006C000FF09B9F1070FECDBF81D85B208F18500D1
:1006D00086B26580A68005F11E00E08006F11E004E
:1006E0002081752020800A3407F1C90085B208F105
:1006F000850086B26580A68005F11E00E08006F1C7
:100700001E0020813C2020800A34F81D85B208F1AB
:10071000A80086B26580A68005F12A00E08006F177
:100720001E002081312020800A3407F1350085B277
:100730006580A68005F12C00E08006F11E00208176
:10074000402020800A3407F1650085B26580A680CC
:1007500005F14200E08006F11E002081202020806B
:100760000A3407F1AB0085B26580A68005F142002E
:10077000E08006F11E002081452020800A34F81D0B
:1007800085B208F11F0086B26580A68005F11E00C3
:10079000E08006F119002081312020800A3405F123
:1007A000260085B26580A68005F11E00E08006F176
:1007B00019002081322020800A3405F1260085B2FC
:1007C0006580A68005F11E00E08006F119002081F9
:1007D000332020800A3405F1260085B26580A6808A
:1007E00005F11E00E08006F11900208134202080F0
:1007F0000A3405F1260085B26580A68005F148001F
:10080000E08006F1190020813420208000BF04E739
:100810002DE9F04397B00025AA27A846B946002441
:100820007A48066854227A4902A80EF0EAFB08F1D9
:10083000070509F13F0700BF23E04FF6FF700021D5
:10084000CDE900107349097801EBC10101EB4101C9
:1008500002AB19440A5DE91C88B21823394605F039
:1008600062FB6C48007800EBC00000EB400002A97E
:100870000844005D308005F1170085B20A36601C1F
:10088000C4B20A2CD9DB08F1110085B209F162006B
:1008900087B20A2423E04FF6FF700021CDE9001053
:1008A0005C49097801EBC10101EB410102AB19443C
:1008B0000A5DE91C88B21823394605F034FB554817
:1008C000007800EBC00000EB400002A90844005D86
:1008D000308005F1170085B20A36601CC4B2132CB3
:1008E000D9DB08F1280085B209F1850087B213240D
:1008F00023E04FF6FF700021CDE90010454909784B
:1009000001EBC10101EB410102AB19440A5DE91C95
:1009100088B21823394605F006FB3E48007800EB04
:10092000C00000EB400002A90844005D308005F1E2
:10093000170085B20A36601CC4B21A2CD9DB17B076
:10094000BDE8F0832DE9FC4105460F4614461E46DE
:10095000DDF820800CE0CDE900682278E91C88B23F
:100960001823394605F0DFFA05F10C0085B2641C46
:1009700020780028EFD1BDE8FC8100B58BB0264877
:10098000007800287ED10A90AA2009900A98089041
:1009900009980790EF20069040F271100590002012
:1009A000049048F23040009009981E3003900146B0
:1009B000DDE905320A9805F09CF809983A30039071
:1009C00009983A3002900146039B069A0A9805F06E
:1009D000FDF80898C01D0A9007981F3009904FF63F
:1009E000FF7000900998183003900A981230029016
:1009F0000246039BDDE9091005F07BF84FF6FF7016
:100A0000002306A20090DDE9091009E0040000209F
:100A100044FF0008080000200900002046310000C3
:100A2000FFF790FF4FF6FF70009009981830039081
:100A30000A981E3002900A981B300190DDE90223CB
:100A4000099905F056F84FF6FF7000900998183094
:100A500003900A981E3002900998183001900146C0
:100A6000DDE902230A9805F044F800200090099877
:100A7000193003900A981E3002900998193001909D
:100A8000014600E0F8E3DDE902230A9805F0F6F8F4
:100A90000A9826300A904FF6FF7000900998183097
:100AA00003900A98123002900246039BDDE9091078
:100AB00005F01FF84FF6FF700023FCA20090DDE95F
:100AC0000910FFF73FFF4FF6FF70009009981830AC
:100AD00003900A981E3002900A981B300190DDE9BD
:100AE0000223099905F005F84FF6FF700090099868
:100AF000183003900A981E3002900998183001901F
:100B00000146DDE902230A9804F0F3FF002000907B
:100B10000998193003900A981E30029009981930EC
:100B200001900146DDE902230A9805F0A7F80A982A
:100B300026300A904FF6FF70009009981830039005
:100B40000A98123002900246039BDDE9091004F076
:100B5000D0FF4FF6FF700023D5A20090DDE9091009
:100B6000FFF7F0FE4FF6FF700090099818300390E1
:100B70000A981E3002900A981B300190DDE902238A
:100B8000099904F0B6FF4FF6FF70009009981830ED
:100B900003900A981E30029009981830019001467F
:100BA000DDE902230A9804F0A4FF002000900998D0
:100BB000193003900A981E3002900998193001905C
:100BC0000146DDE902230A9805F058F80A98263014
:100BD0000A904FF6FF7000900998183003900A9819
:100BE000123002900246039BDDE9091004F081FFF8
:100BF0004FF6FF700023AFA20090DDE90910FFF768
:100C0000A1FE4FF6FF7000900998183003900A98E3
:100C10001E3002900A981B300190DDE902230999E9
:100C200004F067FF4FF6FF700090099818300390AA
:100C30000A981E3002900998183001900146DDE9AB
:100C400002230A9804F055FF0020009009981930FB
:100C500080B203900A981E3080B202900998193031
:100C600080B201900146DDE902230A9805F006F8FA
:100C70000A98263080B20A904FF6FF7000900998CB
:100C8000183080B203900A98483080B20290024631
:100C9000039BDDE9091004F02CFF4FF6FF70009074
:100CA0000A98183080B2002383A2039009990DF0AE
:100CB000ABFD834818231A460090DDE9091005F0C2
:100CC00004F9002000900998193080B203900A9826
:100CD000483080B202900998193080B201900146E4
:100CE000DDE902230A9804F0C9FF0898C01D80B20C
:100CF0000A9007983F3080B20990002004902CE0C1
:100D00004FF6FF70009009981D3080B203900A984A
:100D1000123080B202900246039BDDE9091004F014
:100D2000E8FE0020009009981E3080B203900A98D7
:100D3000123080B2029009981E3080B201900146B4
:100D4000DDE902230A9804F099FF0A98173080B26F
:100D50000A900498401CC0B2049004980A28CFDB83
:100D60000898113080B20A900798623080B20990DA
:100D7000002004902CE04FF6FF70009009981D3081
:100D800080B203900A98123080B202900246039B10
:100D9000DDE9091004F0ADFE0020009009981E3036
:100DA00080B203900A98123080B2029009981E30E7
:100DB00080B201900146DDE902230A9804F05EFF4B
:100DC0000A98173080B20A900498401CC0B2049070
:100DD00004980928CFDB0898C01D80B20A900798B4
:100DE000853080B2099000200490F5E00498002836
:100DF0006AD14FF6FF70009009981D3080B20390C1
:100E00000A98123080B202900246039BDDE9091075
:100E100004F06FFE4FF6FF7000232AA20090DDE978
:100E20000910FFF78FFD4FF6FF70009009981D30F5
:100E300080B203900A981E3080B202900A981B304C
:100E400080B20190DDE90223099904F052FE4FF6C9
:100E5000FF70009009981D3080B203900A981E30F0
:100E600080B202900998183080B201900146DDE905
:100E700002230A9804F03DFE0020009009981E30DD
:100E800080B203900A981E3080B2029009981E30FA
:100E900080B201900146DDE902230A9804F0EEFEDB
:100EA0000A98213080B20A9092E00DE046320000AC
:100EB0004633000046340000D2FEB2D800000000E5
:100EC000DC790408757000000498082857D14FF6A3
:100ED000FF70009009981D3080B203900A9812307C
:100EE00080B202900246039BDDE9091004F001FE86
:100EF0004FF6FF700023FEA20090DDE90910FFF716
:100F000021FD4FF6FF70009009981D3080B20390CC
:100F10000A981E3080B202900A981B3080B201906D
:100F2000DDE90223099904F0E4FD4FF6FF7000901B
:100F300009981D3080B203900A981E3080B202904A
:100F40000998183080B201900146DDE902230A9821
:100F500004F0CFFD0020009009981E3080B203906D
:100F60000A981E3080B2029009981E3080B201901B
:100F70000146DDE902230A9804F080FE28E04FF6DE
:100F8000FF70009009981D3080B203900A981230CB
:100F900080B202900246039BDDE9091004F0A9FD2E
:100FA0000020009009981E3080B203900A981230F9
:100FB00080B2029009981E3080B201900146DDE9AE
:100FC00002230A9804F05AFE0A98173080B20A9059
:100FD0000498401CC0B2049004980928FFF606AF9C
:100FE0000898C01D80B20A900798A83080B2099076
:100FF0004FF6FF70009009981D3080B203900A9858
:10100000123080B202900246039BDDE9091004F021
:1010100070FD4FF6FF700023B6A20090DDE90910C5
:10102000FFF790FC4FF6FF70009009981D3080B2DA
:1010300003900A982A3080B202900A98273080B232
:101040000190DDE90223099904F053FD4FF6FF708A
:10105000009009981D3080B203900A982A3080B21F
:1010600002900998183080B201900146DDE9022310
:101070000A9804F03EFD0020009009981E3080B2CE
:1010800003900A982A3080B2029009981E3080B2EC
:1010900001900146DDE902230A9804F0EFFD08986B
:1010A000353080B20A904FF6FF70009009981D30DD
:1010B00080B203900A982C3080B202900246039BC3
:1010C000DDE9091004F015FD4FF6FF700090099856
:1010D000C01C80B2002388A2014603900A980DF03C
:1010E00093FB0020009009981E3080B203900A986C
:1010F0002C3080B2029009981E3080B201900146D7
:10110000DDE902230A9804F0B9FD0898653080B241
:101110000A904FF6FF70009009981D3080B203903E
:101120000A98123080B202900246039BDDE9091052
:1011300004F0DFFC4FF6FF70002371A20090DDE9A0
:101140000910FFF7FFFB4FF6FF70009009981D3064
:1011500080B203900A98423080B202900A983F30E1
:1011600080B20190DDE90223099904F0C2FC4FF638
:10117000FF70009009981D3080B203900A984230A9
:1011800080B202900998183080B201900146DDE9E2
:1011900002230A9804F0ADFC0020009009981E304C
:1011A00080B203900A98423080B2029009981E30B3
:1011B00080B201900146DDE902230A9804F05EFD49
:1011C0000898AB3080B20A904FF6FF7000900998F3
:1011D0001D3080B203900A98123080B2029002460D
:1011E000039BDDE9091004F084FC4FF6FF70002337
:1011F00045A20090DDE90910FFF7A4FB4FF6FF7050
:10120000009009981D3080B203900A98423080B255
:1012100002900A983F3080B20190DDE902230999DB
:1012200004F067FC4FF6FF70009009981D3080B203
:1012300003900A98423080B202900998183080B228
:1012400001900146DDE902230A9804F052FC0020D7
:10125000009009981E3080B203900A98423080B204
:10126000029009981E3080B201900146DDE9022308
:101270000A9804F003FD69E0FFE72548007801289B
:1012800064D100200A9040F2531009900A98089007
:1012900009980790EF20069040F27110059048F2EF
:1012A00030400090DDE90532DDE9091004F021FC51
:1012B00008989F300A900798401C09904FF6FF70DD
:1012C00000900998183004900A984830039002461C
:1012D000049BDDE9091004F00CFC4FF6FF70009050
:1012E0000A9818300023AFF230420490099911E0B7
:1012F0003C2D000031323300C7E5C6C100000000BC
:101300007370616365000000456E746572000000D3
:10131000090000200DF078FAFE4818231A460090C4
:10132000DDE9091004F0D1FD002000900998193082
:1013300004900A98483003900998193002900146A9
:10134000DDE903230A9804F099FC00BF0BB000BD4F
:101350002DE9F84F04460D4616461F46DDE90A9A68
:10136000DDF830803B46324629462046CDF80080E5
:1013700004F0BFFBE8480480E8480580BDE8F88F2A
:101380002DE9FE4F0546894692461E46DDE90D7859
:101390000C9C23462022E148CDE900780188DE48F4
:1013A000008804F0C0FDDC480580DC48008820444B
:1013B000DA490880301B0988884207DA33465246EA
:1013C000494628468DE89001FFF7C2FFBDE8FE8F31
:1013D0002DE9FC4704460D4691469A46DDE90B7817
:1013E0000A9E33462022CD48CDE900780188CA48BC
:1013F000008804F098FDC8480088A0420DD1C74875
:101400000088A8420ED0A9F10C00C3490880C34847
:101410000088801BC149088004E0BF4800880C3860
:10142000BD49088033462022BC48CDE900780188B8
:10143000B948008804F077FDBDE8FC8700B587B0A7
:10144000B748007800287CD1B6480078012879D1C7
:1014500000200690B44800680590002006901FE028
:10146000B248818805984088814212DBAF48818864
:101470000598C08881420CDCAC48C18805988088FA
:10148000814206DBA948C18805980089814200DCB9
:1014900009E005980A3005900698401CC0B20690F5
:1014A00006982528DCDB00BF069825287EDA0698FA
:1014B0001A287CDA4FF6E070009005980089401EEB
:1014C00080B204900598C0880390059880880290A7
:1014D00005984088019002A90EC904F00AFB4FF656
:1014E000E0700021CDE9001005980078049005987F
:1014F0008088039005984088C01C80B21823029011
:10150000DDE9031204F00FFD4FF4967004F009F8C2
:101510004FF6FF70009005980089401E80B204903D
:101520000598C088039005988088029005984088A7
:10153000019002A90EC904F0DCFA4FF6FF700021F9
:1015400001E0FCE3FCE3CDE900100598007804908D
:1015500005988088039005984088C01C80B21823A5
:101560000290DDE9031204F0DEFC714800780128E6
:1015700033D170480078072898DA4FF6FF700021C1
:10158000CDE90010059800781823024604906348BE
:1015900001886148008804F0C6FC5F4800880C3070
:1015A0005D49088005980088049001E0F4E33BE081
:1015B000614860490978084403900121049A0DF0BC
:1015C00052FD5D485B490978084400214170594843
:1015D0000078401C57490870DEE34FF6FF70002189
:1015E000CDE90010059800781823024604904B4876
:1015F00001884948008804F096FC474800880C3070
:101600004549088008460088EF28E5DD4FF6FF7061
:1016100000211822C723CDE900210290EF222D21BD
:101620000020FFF7ADFED7E706981A380B2860D2E6
:10163000DFE800F00660FBF9F8F7F6F5F4F3F200E6
:101640004FF6E070009005980089401E80B204902B
:101650000598C08803900598808802900598408876
:10166000019002A90EC904F044FA4FF6E070009010
:10167000059880880490059840880023AFF2BC72DA
:1016800003900499FFF75EF94FF4967003F049FF59
:101690004FF6FF70009005980089401E80B20490BC
:1016A0000598C08803900598808802900598408826
:1016B000019002A90EC904F01CFA4FF6FF700090C9
:1016C000059880880490059840880023AFF60C02A6
:1016D00003900499FFF736F918480078012803D1E0
:1016E00000201649087002E0012014490870FFF735
:1016F0008FF8D8E34FF6E070009005980089401EFF
:1017000080B204900598C088039005988088029064
:10171000059815E0DC7904080A0000200C00002080
:101720000900002068000020040000206A0000205A
:1017300035000020340000200007002008000020B1
:101740004088019002A90EC904F0D3F94FF6E07069
:101750000090059880880490059840880023AFF297
:10176000704203900499FFF7EDF84FF4967003F080
:10177000D8FE4FF6FF70009005980089401E80B299
:1017800004900598C0880390059880880290059879
:101790004088019002A90EC904F0ABF94FF6FF7022
:1017A0000090059880880490059840880023AFF247
:1017B000C04203900499FFF7C5F8FC48007801285F
:1017C0001CD1FB480078002825DD4FF6FF70002172
:1017D00018222D23CDE90021029060221946002015
:1017E000FFF7F6FDF348F24909780844002101703B
:1017F000EF480078401EEE4908700CE04FF6FF708D
:1018000000211822C723CDE900210290EF222D21CB
:101810000020FFF7DDFD46E30CE3BEE26CE21CE2D4
:10182000D0E162E1B9E05AE0FFE74FF6E0700090E6
:1018300005980089401E80B204900598C0880390E6
:1018400005988088029005984088019002A90EC9E9
:1018500004F04FF94FF6E0700090059880880490EE
:10186000059840880023AFF2745203900499FFF763
:1018700069F84FF4967003F054FE4FF6FF70009035
:1018800005980089401E80B204900598C088039096
:1018900005988088029005984088019002A90EC999
:1018A00004F027F94FF6FF700090059880880490A7
:1018B000059840880023AFF2C45203900499FFF7C3
:1018C00041F8BD480078022803D00220BA490870C8
:1018D00002E00120B8490870FEF79AFFE3E24FF6F4
:1018E000E070009005980089401E80B20490059831
:1018F000C0880390059880880290059840880190E0
:1019000002A90EC904F0F5F84FF6E07000900598B2
:101910008088C01C80B20490059840880023AFF2F4
:101920002862039004990CF06FFF4FF4967003F057
:10193000F8FD4FF6FF70009005980089401E80B2B8
:1019400004900598C08803900598808802900598B7
:101950004088019002A90EC904F0CBF84FF6FF7041
:10196000009005988088C01C80B20490059840883B
:101970000023AFF27C62039004990CF045FF4FF610
:10198000FF7000211822C723CDE900210290EF2229
:101990002D210020FFF7DCFC85E24FF6E07000907F
:1019A00005980089401E80B204900598C088039075
:1019B00005988088029005984088019002A90EC978
:1019C00004F097F84FF6E070009005988088049036
:1019D000059840880023AFF2D86203900499FEF77F
:1019E000B1FF4FF4967003F09CFD4FF6FF7000902E
:1019F00005980089401E80B204900598C088039025
:101A000005988088029005984088019002A90EC927
:101A100004F06FF84FF6FF700090059880880490EE
:101A2000059840880023AFF2287203900499FEF7CE
:101A300089FF5E480078012830D15D48007807288A
:101A400052DA4FF6FF700021CDE9001005980078BA
:101A5000182302460490594801885948008804F028
:101A600062FA574800880C3055490880059800886C
:101A7000049050484E490978084403900121049A83
:101A80000DF0F1FA4B484A490978084400214170A9
:101A900047480078401C4649087025E04FF6FF7023
:101AA0000021CDE900100598007818230246049023
:101AB000424801884248008804F035FA40480088CE
:101AC0000C303F49088008460088EF280CDD4FF6AF
:101AD000FF7000211822C723CDE900210290EF22D8
:101AE0002D210020FFF74CFCDDE14FF6E070009067
:101AF00005980089401E80B204900598C088039024
:101B000005988088029005984088019002A90EC926
:101B100003F0EFFF4FF6E070009005988088049086
:101B2000059840880023AFF6200203900499FEF741
:101B300009FF4FF4967003F0F4FC4FF6FF7000902D
:101B400005980089401E80B204900598C0880390D3
:101B500005988088029005984088019002A90EC9D6
:101B600003F0C7FF4FF6FF7000900598808804903F
:101B7000059840880023AFF6700203900499FEF7A1
:101B8000E1FE0A480078012802D103F018FC0CE0BD
:101B90004FF6FF7000211822C723CDE900210290E3
:101BA000EF222D210020FFF7EBFB7CE13500002028
:101BB0003400002000070020080000200C00002056
:101BC0000A0000204FF6E070009005980089401E42
:101BD00080B204900598C088039005988088029090
:101BE00005984088019002A90EC903F082FF4FF6C4
:101BF000E070009005988088049005984088002344
:101C0000D0A203900499FEF79DFE4FF4967003F066
:101C100088FC4FF6FF70009005980089401E80B246
:101C200004900598C08803900598808802900598D4
:101C30004088019002A90EC903F05BFF4FF6FF70C8
:101C40000090059880880490059840880023BDA2E4
:101C500003900499FEF776FE25E14FF6E0700090C0
:101C600005980089401E80B204900598C0880390B2
:101C700005988088029005984088019002A90EC9B5
:101C800003F037FF4FF6E0700090059880880490CD
:101C9000059840880023AFF6EC5203900499FEF7B4
:101CA00051FE4FF4967003F03CFC4FF6FF7000902D
:101CB00005980089401E80B204900598C088039062
:101CC00005988088401C80B2029005984088019059
:101CD00002A90EC903F00DFF4FF6FF7000900598A2
:101CE00080880490059840880023AFF640620390F6
:101CF0000499FEF727FED6E04FF6E07000900598B5
:101D00000089401E80B204900598C0880390059811
:101D10008088029005984088019002A90EC903F0BE
:101D2000E8FE4FF6E07000900598808804900598D2
:101D300040880023AFF688620390049901E0B4E084
:101D4000D8E0FEF7FFFD4FF4967003F0EAFB4FF684
:101D5000FF70009005980089401E80B2049005989D
:101D6000C08803900598808802900598408801906B
:101D700002A90EC903F0BDFE4FF6FF700090059852
:101D800080880490059840880023AFF6DC620390B9
:101D90000499FEF7D7FD86E086E04FF6E0700090EC
:101DA00005980089401E80B204900598C088039071
:101DB00005988088029005984088019002A90EC974
:101DC00003F097FE4FF6E07000900598808804902D
:101DD000059840880023AFF6247203900499FEF71B
:101DE000B1FD4FF4967003F09CFB4FF6FF7000902E
:101DF00005980089401E80B204900598C088039021
:101E000005988088029005984088019002A90EC923
:101E100003F06FFE4FF6FF700090059880880490E5
:101E2000059840880023AFF6747203900499FEF77A
:101E300089FD38E04FF6E070009005980089049025
:101E40000598C0880390059880880290059840887E
:101E5000019002A90EC903F04CFE4FF6E07000237A
:101E6000AFF6AC72C9210090B7200CF0CDFC36481B
:101E700018231A46C92100909F2004F026F84FF439
:101E8000967003F04EFB4FF6FF704FF4B973EF22DC
:101E9000C8210090002003F02CFE01202B4908707F
:101EA000FEF76BFD00BF00BF24E028480078012842
:101EB00020D12748007801281CD1264880889F28F7
:101EC00018DB24488088E32814DC2248C088B0F559
:101ED000A97F0FDD1F48C088B0F5B97F0ADA00205E
:101EE0001A490870FEF749FDFEF792FC4FF4967010
:101EF00003F017FB07B000BD1CB51748007880B988
:101F00004FF6FF70002118237C22CDE90010134802
:101F100001881348008804F006F801200E49087073
:101F20000EE04FF6FF70009018237C2201900B48C2
:101F300001880B48008803F0F6FF0020064908706E
:101F40001CBD000046310000DC79040809000020B7
:101F5000680000206A0000200E0000200C00002015
:101F60000A0000202DE9F84F04460D4616461F468C
:101F7000DDF834A0DDE90A9840460CF0D2FF834634
:101F80003B46324629462046CDF8009003F09DFF9F
:101F9000EA19521C91B20BEB8B02A6EB420204EB46
:101FA000520290B2CDF800A042460C9B0CF02CFCE3
:101FB000BDE8F88F1FB54FF6FF700021EFA2F14B7F
:101FC000CDE90032CDE9021040231A461F210C2032
:101FD000FFF7C8FF4FF6FF700021EBA2EC4BCDE9F5
:101FE0000032CDE9021040231A461F215820FFF786
:101FF000B9FF4FF6FF700021E6A2E84BCDE90032B1
:10200000CDE9021040231A461F21A420FFF7AAFFA2
:102010004FF6FF700021E2A2E34BCDE90032CDE99B
:10202000021040231A4680210C20FFF79BFF4FF639
:10203000FF700021DDA2DF4BCDE90032CDE90210B7
:1020400040231A4680215820FFF78CFF1FBD08B59A
:10205000D948007878BB4FF6FF7003F0B0FB47F625
:10206000FF701723EF2200210090084603F041FD86
:102070004FF6FF7040F27113EF22192100900020FB
:1020800003F037FD002040F28F13EF224FF4B971B7
:10209000009003F02EFD47F6FF700023C7A21946FB
:1020A000009018460CF0FBFAFFF784FF0120C249AC
:1020B000087004F0D2F808BD08B54FF6FF7040F282
:1020C0007113EF2219210090002003F012FD4FF64A
:1020D000FF700023BDA21821009050200CF094FB4B
:1020E000BC481423182211460090D22003F0EDFEC4
:1020F00000202C23EF221946009003F0BFFD0020A2
:10210000B54908802D20B5490880FEF736FCFEF75A
:102110007FFB08BD08B54FF6FF7040F27113EF2248
:1021200019210090002003F0E4FC4FF6FF7000231B
:1021300098A21821009050200CF066FBA5481423AB
:10214000182211460090D22003F0BFFE00202C235D
:10215000EF221946009003F091FD08BD08B54FF637
:10216000FF7040F27113EF2219210090002003F05C
:10217000C0FC4FF6FF70002399A218210090502058
:102180000CF042FB93481423182211460090D220F1
:1021900003F09BFE9448142318221146009005205A
:1021A00003F093FE00202C23EF221946009003F049
:1021B00065FD02F023F908BD08B54FF6FF7040F247
:1021C0007113EF2219210090002003F092FC4FF6CA
:1021D000FF70002385A21821009050200CF014FB02
:1021E0007C481423182211460090D22003F06DFE83
:1021F0007D481423182211460090052003F065FE47
:1022000000202C23EF221946009003F037FD01F047
:102210003EFA08BD2DE9F0418AB007460D46144646
:102220001E46DDF840800020089009900690079037
:102230000490059002900390B44208D102A9404650
:1022400006F054FE02A908A80CF08AFE1BE0601EEE
:102250000A280EDAB4420CD066A108A80CF080FE61
:10226000601E02A906F042FE02A908A80CF078FE42
:1022700009E0B44207D0601E02A906F037FE02A9A9
:1022800008A80CF06DFE0A2C03DA5AA106A80CF07F
:1022900067FE02A9204606F029FE02A906A80CF056
:1022A0005FFE444508D102A9304606F01FFE02A990
:1022B00004A80CF055FE1BE0601C0A280EDA444509
:1022C0000CD04CA104A80CF04BFE02A9601C06F037
:1022D0000DFE02A904A80CF043FE09E0444507D016
:1022E00002A9601C06F002FE02A904A80CF038FE48
:1022F00041481823302229460090384603F0E5FD76
:102300004FF6FF7048F2304105F11802CDE9001098
:1023100091B207F10C0290B2182308AA03F07AFFD9
:102320004FF6FF704FF4784105F13002CDE900100F
:1023300091B207F10C0290B2182306AA03F06AFFCB
:102340004FF6FF7048F2304105F14802CDE9001028
:1023500091B207F10C0290B2182304AA03F05AFFBD
:102360002648009005F1600081B2182330223846DB
:1023700003F0ABFD0AB0BDE8F0817047CEC4B1BE3A
:10238000000000009C110408D2F4C0D60000000038
:102390009C310408CEC2CAAAB6C800009C510408E9
:1023A000CAB1D6D3000000009CD10308B5C6BFD87F
:1023B000000000009CF103080F000020574631394F
:1023C000303520BACED1C7BFB5000000D0A1B1BE14
:1023D000B1BE00001C7604080A0000200C0000209A
:1023E000D2F4C0D6BFE200005C7E0408D0A1C4D6FF
:1023F000D6D30000300000001CDC04081CE50408F3
:102400002DE9FC4105460C460026681D85B2A4F165
:102410000C0084B21F20009004F1300083B205F15B
:10242000C00082B204F10C0081B2284603F0DCFC4B
:1024300000BF17E04FF4FC6004F12E07BBB205F1BA
:102440000B07BAB204F10E07B9B2AF1C0090B8B2D4
:1024500003F04FFB05F10C0085B2642003F061F836
:10246000701C86B2102EE5DB40F2FF701F21CDE913
:10247000001004F10C0081B21023FEA2C72003F06B
:10248000C9FE40F2FF701F21CDE9001004F11D00CC
:1024900081B21023F9A2C72003F0BCFE002504F18D
:1024A000300084B240F2FF7000211023F5A2CDE984
:1024B00000102146284603F0ADFEC82003F031F895
:1024C00004F1100084B240F2FF7000211023F5A245
:1024D000CDE900102146284603F09CFEC82003F0F9
:1024E00020F804F1100084B240F2FF7000211023A4
:1024F000F5A2CDE900102146284603F08BFEBDE889
:10250000FC812DE9FC5F0546884614461E46DDE940
:102510000DABDDF83090002700BF13E023462E22DC
:1025200041462846CDE900AB03F0FDFC1FFA89F0D7
:1025300002F0F7FF204604EBD07105EB61018DB28C
:10254000781C87B2B742E9DB40F2FF701F212346B7
:10255000E2A2CDE900104146284603F05BFEBDE84B
:10256000FC9F3EB505460C4640F2FF700021182343
:10257000DBA2CDE900102146284603F04BFE04F112
:10258000180084B24FF4967002F0CBFF40F2FF7057
:1025900000211823D6A2CDE900102146284603F0D9
:1025A00039FE04F1180084B24FF4967002F0B9FFBE
:1025B00040F2FF7000211023D0A2CDE90010214687
:1025C000284603F027FE40F2FF7000214FF4967278
:1025D000CDE90021029005F1B20188B20323102257
:1025E0002146FFF78EFF4FF4967002F09AFF04F138
:1025F000100084B240F2FF7000211023C5A2CDE983
:1026000000102146284603F005FE40F2FF7000212D
:102610006422CDE90021029005F1B20188B20323C2
:1026200010222146FFF76DFF4FF4967002F079FFFC
:1026300004F1100084B24FF4967002F072FF40F281
:10264000FF7000211023B8A2CDE9001021462846D2
:1026500003F0E0FD40F2FF7000214FF49672CDE9E7
:102660000021029005F1B20188B203231022214615
:10267000FFF747FF4FF4967002F053FF04F110008C
:1026800084B240F2FF7000211023A2A2CDE9001015
:102690002146284603F0BEFD40F2FF70002164226F
:1026A000CDE90021029005F1B20188B20323102286
:1026B0002146FFF726FF4FF4967002F032FF04F137
:1026C000100084B240F2FF7000216422CDE90021A5
:1026D0000290A4F1580291B205F18C0290B203234A
:1026E0001822FFF70EFFFDF74CFF40F2FF700021AC
:1026F000182393A2CDE900102146284603F08AFD55
:1027000040F2FF7000216422CDE90021029005F122
:102710008C0188B2032318222146FFF7F2FEC8205D
:1027200002F0FFFE04F1180084B240F2FF700021B5
:10273000102386A2CDE900102146284603F06AFD49
:10274000C82002F0EEFE04F1100084B240F2FF70E7
:102750000021102383A2CDE900102146284603F072
:1027600059FDC82002F0DDFE04F1100084B240F2F1
:10277000FF7000210C2382A2CDE9001021462846DB
:1027800003F048FDC82002F0CCFE04F10C0084B236
:1027900040F2FF7000210C2382A2CDE900102146F7
:1027A000284603F037FDC82002F0BBFE04F10C0000
:1027B00084B240F2FF7000210C2383A2CDE9001007
:1027C0002146284603F026FDC82002F0AAFE04F1A7
:1027D0000C0084B240F2FF700021182383A2CDE9DF
:1027E00000102146284603F015FDC82002F099FE8E
:1027F00004F1180084B240F2FF700021102380A27F
:10280000CDE900102146284603F004FD40F2FF7098
:1028100000216422CDE90021029005F1B20188B2C5
:10282000032310222146FFF76CFEC82002F079FE38
:1028300004F1100084B240F2FF700021102375A251
:10284000CDE900102146284603F0E4FC40F2FF7079
:1028500000216422CDE90021029005F1B20188B285
:10286000032310222146FFF74CFEC82002F059FE38
:10287000DCE00000313030250000000031362F311F
:1028800036000000546F74616C20426C6F636B3AC9
:102890003136202042616420426C6F636B3A3020F5
:1028A00000000000506167652073697A653A344B17
:1028B00062202020426C6F636B2073697A653A3620
:1028C000344B622000000000546F74616C20736907
:1028D0007A653A3531324B6200000000204F4B00E0
:1028E000537461727570206D616368696E653A003A
:1028F000534452414D20546573743A0057726974C1
:10290000696E67203078353520746F206D656D6F86
:102910007279000054727920746F207265616420AE
:10292000646174610000000057726974696E672009
:102930003078414120746F206D656D6F72790000B1
:1029400053797374656D20696E666F0043686970B2
:1029500020747970653A53544D3332463130335ACE
:102960004500000053797374656D206D61696E20B8
:102970006672657175656E63793A37324D487A00D3
:10298000523020616464726573733A307830383045
:1029900030303030302073697A653A3078383030F2
:1029A00030300000525720616464726573733A30AE
:1029B0007832303030303030302073697A653A30D8
:1029C00078313030303000005A49206164647265DB
:1029D00073733A30783030303030303030207369B3
:1029E0007A653A30783035303030000043686172B3
:1029F000616374657220706F736974696F6E000033
:102A0000415343494920616464726573733A52309B
:102A10003A2E2E004368696E6573652061646472A6
:102A20006573733A53443A303100000004F11000EA
:102A300084B240F2FF70002118231BA2CDE90010E0
:102A40002146284603F0E6FBC82002F06AFD04F1A7
:102A5000180084B221462846FFF7D2FC3EBD1CB5C3
:102A60001F2002F0ACFE40F2FF7040F28F13EF2205
:102A700019210090002003F03CF81F2000211823AA
:102A80000EA2CDE90010352003F0C4FB1CBD10B52B
:102A9000FFF7E5FF1A210020FFF763FD4FF47A707E
:102AA00002F03FFD10BD0000436B65636B696E670C
:102AB000204E616E64466C6173680000426F6F74F3
:102AC000207465737400000010B506F09BFD06F0DD
:102AD0007FF806F0D7FB0AF062FB00200AF037FD12
:102AE0001B49012248681BA108F0C5FC07200BF018
:102AF00019FD07F08DF80AF066FE0BF00DF802F0F4
:102B00002DF9FDF779FD00F0A4F910BD10B504F022
:102B10005DFB04F041FB05F079FB05F0D7FB10BD30
:102B200010B5482002F0C6FCFDF7A8FB02F069FED4
:102B3000FDF7FCFC05F0D1FA10BD10B5FFF7F0FF72
:102B4000FFF7A5FFFFF7E2FFFFF7BEFF10BD000094
:102B50008C0B0020313A000070B505460026002499
:102B60000C2110200BF0F2FE2860286800B970BD1F
:102B70002C6800260AE0002020806080A080E08091
:102B800020726072E0601034701CC6B20C2EF2DB52
:102B900000BFECE72DE9F0410446DDE9077C069E25
:102BA0000025204600BF04E0103005F1010808F0C0
:102BB000FF058D42F8DB90F80880B8F1000F0DD1C9
:102BC000028043808680C7804FF0010880F808802B
:102BD0004FF0000880F80980C0F80CC0BDE8F08113
:102BE00010B50022034600BF02E01033541CE2B2CD
:102BF0008A42FADB01245C7210BD10B50022034644
:102C000000BF02E01033541CE2B28A42FADB002417
:102C10005C7210BD10B50022034600BF02E0103305
:102C2000541CE2B28A42FADB00241C7210BD70B55B
:102C300006460025344600BF0EE0207A012808D160
:102C4000607A012805D1E068804729463046FFF7C1
:102C5000D4FF1034681CC5B20C2DEEDB70BD10B56E
:102C60000120FE4908704FF4967002F05AFC10BD26
:102C700070B506462AE00025344600BF20E0F8483B
:102C800080882188884218DBF5488088A18888429E
:102C900013DCF348C088618888420EDBF048C088A6
:102CA000E188884209DC29463046FFF799FF002079
:102CB000EC490870EC49087070BD1034681CC5B24E
:102CC0000C2DDCDB0020E749087000BFE5480078E8
:102CD0000128D0D000BFEFE710B50020E34908700D
:102CE0000120E349087002F03DFBE24A4FF47A719B
:102CF000012005F008FB0020D84908700BE005F022
:102D000018FAFEF79BFBDC480068FFF7B1FFDA48D2
:102D10000068FFF78CFFD14800780028EFD0012031
:102D200005F01AFB03F099FA0020D1490870012040
:102D3000CE4908700020C9490870FFF70FFA10BD8E
:102D400010B5CEA003F0A9FAFFF736FA0020C34968
:102D5000087009E005F0EDF9CD480068FFF788FF3D
:102D6000CB480068FFF763FFBC4800780028F1D02B
:102D700010BD10B5C7A003F090FAFFF7CBF9012002
:102D8000CA4908700020B549087009E005F0D1F97A
:102D9000C7480068FFF76CFFC5480068FFF747FFAA
:102DA000AE4800780028F1D00020C049087010BD5E
:102DB00010B5C0A003F071FA022005F0CDFAFFF7BC
:102DC000CDF90020A549087009E005F0B2F9BF4827
:102DD0000068FFF74DFFBD480068FFF728FF9F48D8
:102DE00000780028F1D0BAA003F057FABE4A40F6A6
:102DF000B831022005F087FA10BD10B500209B49BC
:102E00000870BAA003F049FAFFF756F9994A4FF44F
:102E10007A71012005F077FA0020904908700BE0E4
:102E200005F087F9FEF70AFBB6480068FFF720FFB8
:102E3000B4480068FFF7FBFE884800780028EFD010
:102E4000012005F089FA03F008FA0120874908708B
:102E500010BD0EB5AC48FFF77FFEAFF261006F21E9
:102E60004C221F23CDE9002102900C220021A6480C
:102E70000068FFF78FFEAFF2C7006F2198221F2373
:102E8000CDE900210290582201219F480068FFF7F8
:102E900081FEAFF221106F21E4221F23CDE9002132
:102EA0000290A422022198480068FFF773FEAFF257
:102EB0006F10D0214C228023CDE9002102900C22FA
:102EC000032191480068FFF765FE9048D0219822C1
:102ED0008023CDE900210290582204218A4800680D
:102EE000FFF758FE8748FFF737FEAFF28D203521F8
:102EF000EF220023CDE900210290BE22194681482D
:102F00000068FFF747FE6A48FFF726FEAFF2B120E0
:102F10003521EF220023CDE900210290BE2219467F
:102F200063480068FFF736FE6848FFF715FEAFF20A
:102F3000D1203521EF220023CDE900210290BE22CD
:102F4000194662480068FFF725FE71483521302296
:102F50000023CDE9002102901A4601215B48006858
:102F6000FFF718FE6B48C021EF224823CDE900216E
:102F700002900022022155480068FFF70BFEAFF2D5
:102F8000A720EA217722C223CDE900210290002266
:102F900003214E480068FFF7FDFD5F48EA21EF225C
:102FA000C223CDE90021029078220421474800681D
:102FB000FFF7F0FD59484FF495715222FA23CDE9FD
:102FC000002102900E22052140480068FFF7E2FD33
:102FD00053484FF495719822FA23CDE900210290CD
:102FE0005622062139480068FFF7D4FD4D484FF4BA
:102FF0009571D822FA23CDE9002102909E22072163
:1030000032480068FFF7C6FD47484FF4B971EF2218
:1030100040F24B13CDE900210290002208212B48F9
:103020000068FFF7B7FD1448FFF796FD3F483521CC
:10303000EF220023CDE900210290BE2219460E485E
:103040000068FFF7A7FD1248FFF786FDAFF2F130E9
:103050003521EF220023CDE9002169E03000002076
:103060006A000020680000200F00002009000020F6
:1030700035000020F91E000824000020C4D6D6D355
:103080003AD5FDD4DABDF8C8EBC4D6D6D3000000DB
:1030900028000020CEC2CAAAB6C83AD5FDD4DABCF0
:1030A000ECB2E2CEC2CAAAB6C800000010000020EE
:1030B0001C000020BDF8C8EBD2F4C0D62CB9D8B1A2
:1030C000D5CEC2CAAAB6C8BCECB2E200200000202D
:1030D000CDCBB3F6D2F4C0D62CB4F2BFAACEC2CABE
:1030E000AAB6C8BCECB2E200D3970008D0A1B1BE2A
:1030F000B1BE3AD5FDD4DABDF8C8EBD0A1B1BEB1AE
:10310000BE0000001800002014000020C1040008C8
:10311000814F000859460008A54F00085D5000087F
:1031200069450008C5500008D3520008A1530008A3
:103130000290BE22194671480068FFF72BFD7048C7
:10314000352130220023CDE9002102901A460121C9
:103150006A480068FFF71EFD6A48F52140223623C1
:10316000CDE9002102900022022164480068FFF7A7
:1031700011FD6548F5219A223623CDE90021029000
:10318000402203215D480068FFF704FD5F48F521F8
:10319000EF223623CDE9002102909A2204215748DC
:1031A0000068FFF7F7FC5A48FFF7D6FC594867213B
:1031B000EF223623CDE9002102909A2201215448C2
:1031C0000068FFF7E7FC5448A72177226823CDE980
:1031D00000210290002202214D480068FFF7DAFC2E
:1031E0004E48E5217722A823CDE900210290002254
:1031F000032147480068FFF7CDFC4948A721EF228B
:103200006823CDE90021029078220421404800681B
:10321000FFF7C0FC4348E521EF22A823CDE90021B8
:103220000290782205213A480068FFF7B3FC3E4837
:103230004FF48571AA22E623CDE900210290732282
:10324000062133480068FFF7A5FC38484FF4857124
:10325000E122E623CDE900210290AB2207212C4890
:103260000068FFF797FC32484FF49771AA224FF499
:103270008573CDE90021029073220821244800685B
:10328000FFF788FC2B484FF49771E1224FF48573C8
:10329000CDE900210290AB2209211D480068FFF70B
:1032A00079FC25484FF4A9717B224FF49773CDE93F
:1032B0000021029000220A2115480068FFF76AFCED
:1032C0001E484FF4A971EF224FF49773CDE9002106
:1032D00002907C220B210E480068FFF75BFC0EBDBC
:1032E00010B504F026FF16480068FFF7C1FC14482B
:1032F0000068FFF79CFCFEF7AAFE10BD2800002026
:103300001F3A0008A93A0008F33A0008753B000884
:103310002C0000207F390008F93C00084D3C0008D3
:10332000633D00082D3D0008973D0008D33D00088F
:103330000F3E00084F3E00088F3E0008B73E0008D1
:10334000140000200146002000BF29E0002200EB0D
:10335000400301F8232000EB400301EB83035A7084
:1033600000EB400301EB83039A7000EB400301EB99
:103370008303DA7000EB400301EB83031A7100EB67
:10338000400301EB83035A7100EB400301EB83031D
:103390009A7100EB400301EB83039A60421CD0B2A8
:1033A0000328D3DB7047F0B5DDE9055401EB410696
:1033B00000F8262001EB410600EB8606737000261C
:1033C00001EB410700EB8707BE70012601EB4107C7
:1033D00000EB8707FE70002601EB410700EB870733
:1033E0003E7101EB410700EB87077E7101EB41075E
:1033F00000EB8707BE7101EB410600EB8606B46067
:10340000F0BD012201EB410300EB83031A7100229E
:1034100001EB410300EB83039A717047002201EB3B
:10342000410300EB83031A717047002201EB410353
:1034300000EB8303DA70704710B5002400BF4AE048
:1034400004EB4400F84901EB8000C078012840D12A
:1034500004EB440001EB80000079012839D104EB32
:10346000440001EB8000807998BB04EB440011F824
:103470002000EE49097988422BD104EB4400EA4947
:1034800001EB80004078E9494979884221D104EB79
:103490004401E54A02EB810188688047012004EB82
:1034A0004401E14A02EB8101887104EB44001146BA
:1034B00001EB8000807860B904EB440001EB8000F0
:1034C0008079012805D1002004EB440102EB810141
:1034D0000871601CC4B2032CB2DB10BD70B58CB097
:1034E00004460E461546142107A80BF0C4FD002023
:1034F0000590069003900490287805A905F0F6FC45
:10350000687803A905F0F2FC28780A2803DAC8A134
:1035100007A80BF025FD05A907A80BF021FDC5A103
:1035200007A80BF01DFD68780A2803DAC0A107A8D8
:103530000BF016FD03A907A80BF012FD4FF6FF7064
:103540000021182307AACDE900103146204602F0D9
:1035500061FE4FF6FF700021CDE9001004F140013B
:1035600088B21823B4A2314602F054FE287901280B
:103570000BD14FF6FF7004F15001009088B2002388
:10358000AEA231460BF040F90DE0287958B94FF65C
:10359000FF7004F15001009088B248F23043A9A2B4
:1035A00031460BF031F94FF6FF700021CDE90010E4
:1035B00004F1960188B218239FA2314602F02AFE38
:1035C000A87801280CD14FF6FF7006F1180291B2CD
:1035D000A21D009090B200239CA20BF015F90DE003
:1035E000A87858B94FF6FF7006F1180291B2A21DE3
:1035F000009090B2002397A20BF006F928790128D9
:103600000CD1964806F1180291B204F15A020090CA
:1036100090B21823302202F058FC0DE0287958B9F6
:103620008F4806F1180291B204F15A02009090B24C
:103630001823302202F049FC4FF4784006F13101A2
:103640008BB204F1D2018AB23739009088B2314688
:1036500002F04FFA4FF4784006F10C0291B204F1F7
:103660009E02009090B200237EA20BF0CDF80020C5
:10367000009006F1320083B204F1D20082B206F16A
:10368000320081B2204602F0F9FA0CB070BD10B5DC
:10369000002400BF15E004EB4400634901EB800007
:1036A000C07801280BD104EB44000B4603EB8002E9
:1036B000601C80010A3881B20F20FFF70FFF601CE9
:1036C000C4B2032CE7DB4FF4967001F02AFF10BD63
:1036D0001CB54FF6FF7040F27113EF2219210090D4
:1036E000002002F006FA4FF6FF7000235FA21821B7
:1036F000009050200BF088F800202C23EF22194670
:10370000009002F0BBFA5C4A36210F20FFF7E6FE7C
:10371000172000905848027800236C214720FEF7BC
:1037200079FD4FF6FF700021182342A2CDE9001069
:103730009B21702002F06EFD3B2000904E484278A5
:1037400000236C217720FEF765FD0020E623E122AF
:10375000194600900F2002F091FA4FF6FF700023F7
:1037600046A2ED21009018200BF04EF842488078D8
:10377000012814D14FF6FF704FF4FC6333A2ED2102
:10378000009078200BF040F84FF6FF7048F230437D
:1037900030A2ED210090AF200BF036F816E036484D
:1037A000807898B94FF6FF7048F2304327A2ED2198
:1037B000009078200BF028F84FF6FF704FF4FC6370
:1037C00024A2ED210090AF200BF01EF800204FF452
:1037D0008573E122194600900F2002F04FFA4FF650
:1037E000FF70002327A240F21111009018200BF067
:1037F0000BF821484079B0B94FF6FF704FF4FC63E5
:1038000022A240F21111009078200AF0FDFF4FF63D
:10381000FF7048F230431FA240F211110090AF2018
:103820000AF0F2FF56E039E0E00000209E000020A0
:10383000300000003A0000007C000000D2D1BFAA96
:10384000C6F40000CEB4BFAAC6F40000C3BFCCECDF
:1038500000000000D3C0B2BB000000001C820408BE
:103860001C8B0408C9BEB3FD00000000C9E8D6C324
:10387000C4D6D6D30000000004010020D6D8B8B4C6
:10388000A3BA0000C1E5C9F9A3BA0000BFAAB3A159
:1038900000000000D6D9CFC400000000F9484079EC
:1038A000012817D14FF6FF7048F23043AFF22402DF
:1038B00040F21111009078200AF0A6FF4FF6FF7039
:1038C0004FF4FC63AFF2340240F211110090AF20CC
:1038D0000AF09AFF00204FF49773E12219460090F6
:1038E0000F2002F0CBF94FF6FF700023E6A240F262
:1038F0003511009018200AF087FF4FF6FF70002363
:10390000E4A240F2351100907F200AF07DFF0020F4
:103910004FF4A973E122194600900F2002F0AEF98E
:103920004FF4967001F0FDFD1CBD10B5002000BFE6
:1039300022E000EB4001DA4A02EB8101C978C9B903
:10394000022817D000EB400102EB8102411C01EB81
:103950004101D34B03EB8103D3E900419B68C2E9EA
:10396000004193600022411C01EB4101CC4B03EB71
:103970008101CA70411CC8B20328DADB10BD10B542
:10398000C848007800EB4000C54901EB8000C078D2
:10399000012808D1C3480178C148FFF746FDFFF769
:1039A000C4FFFFF75CF9FEF707FC642001F0B9FDE6
:1039B00010BD10B50446B34894E80E000EC0FFF7E2
:1039C00087FE0020B849087009E004F0B2FBB74850
:1039D0000068FFF74DF9B5480068FFF728F9B248CD
:1039E00000780028F1D010BD10B5B1A002F055FC50
:1039F000AC48007800EB4000A94901EB8000407919
:103A000030B9FCF7BEFDFCF7BCFDFCF7BAFD05E0E4
:103A1000FCF7CEFDFCF7CCFDFCF7CAFD10BD1CB5D4
:103A20000020A04908700EE09E48007800EB40009E
:103A30009B4901EB8000C07800B908E09948007804
:103A4000401C98490870974800780328ECDB00BFB9
:103A500094480078032803DB9BA002F01EFC22E0C0
:103A60000020A0490870AFF27F000121CDE90010CD
:103A70009D48437902798B4801788948FFF793FC88
:103A80008849097801EB4101854A02EB8100FFF783
:103A900090FF9448007808B9FFF771FF0020824931
:103AA0000870FEF789FB1CBD10B59049C98801F16B
:103AB0000A00C11700EB91618911491E794A117002
:103AC0001046007800EB4000754901EB8000C0789B
:103AD00001280DD11146097801EB4101704A02EB32
:103AE0008100FFF766FF00206F490870FEF764FB56
:103AF00010BD10B57D49C98801F10A00C11700EB5E
:103B000091618911491E674A11701046007800EBD7
:103B10004000634901EB8000C078012810D11046B5
:103B2000007800EB400001EB80000079012807D10C
:103B3000104601785A48FFF771FCFEF73DFB18E08C
:103B40005848007800EB4000554901EB8000C078F0
:103B500001280ED15348007800EB400001EB8000B3
:103B6000007930B94F4801784D48FFF74AFCFEF71D
:103B700023FB10BD08B55D49C98801F10A00C117D2
:103B800000EB91618911491E464A11701046007878
:103B900000EB4000424901EB8000C078012812D1BF
:103BA000104601783E48FFF740FC4FF6FF7040F2A8
:103BB0007113EF222D210090002001F09AFFFFF7F2
:103BC000B4FEFEF7F9FA08BD08B52E48C078012802
:103BD0001BD12C480079012817D101212948FFF772
:103BE0001DFC4FF6FF7048F23043AFF2A832362189
:103BF00000905F200AF008FE3D48182330224E2135
:103C00000090692002F061F91CE01E48C07801288C
:103C100018D11C480079A8B901211A48FFF7F1FB17
:103C20004FF6FF700023AFF2EC32362100905F2098
:103C30000AF0EAFD2F48182330224E210090692017
:103C400002F043F9C82001F06CFC08BD08B50D482E
:103C50000078172803D100200A49087004E00948B9
:103C60000078401C0749087017200090054802782A
:103C700000236C214720FEF7CDFA642001F051FCAF
:103C800008BD000004010020A1BEC8A1CFFBA1BF58
:103C900000000000A1BEB1A3B4E6A1BF0000000077
:103CA000E000002031000020300000202C00002027
:103CB000D6F7C8CBA3ACC4D6D6D3D2D1BEADCFEC49
:103CC000C6F0A3A1A3A10000C4D6D6D3D2D1C2FA14
:103CD000A3A1C7EBC9BEB3FDB2BFB7D6C4D6D6D376
:103CE000A3A10000320000209E0000206A000020F6
:103CF0001C8B04081C82040808B58448007818B995
:103D000017208249087004E080480078401E7F49EF
:103D10000870172000907D48027800236C2147200E
:103D2000FEF778FA642001F0FCFB08BD08B577487F
:103D300040783B2803D100207449487004E0734860
:103D40004078401C714948703B2000906F48427891
:103D500000236C217720FEF75DFA642001F0E1FB7F
:103D600008BD08B56948407818B93B2067494870D4
:103D700004E066484078401E644948703B2000904B
:103D80006248427800236C217720FEF743FA6420D2
:103D900001F0C7FB08BD08B501205C4988704FF6EB
:103DA000FF704FF4FC63AFF25C52ED21009078207D
:103DB0000AF02AFD4FF6FF7048F23043AFF26C5222
:103DC000ED210090AF200AF01FFD642001F0A9FB57
:103DD00008BD08B500204D4988704FF6FF7048F2C5
:103DE0003043AFF29852ED21009078200AF00CFD9C
:103DF0004FF6FF704FF4FC63AFF2A852ED21009034
:103E0000AF200AF001FD642001F08BFB08BD08B56E
:103E100000203E4948714FF6FF704FF4FC63AFF24B
:103E2000945240F21111009078200AF0EDFC4FF608
:103E3000FF7048F23043AFF2A45240F211110090EB
:103E4000AF200AF0E1FC642001F06BFB08BD08B56F
:103E500001202E4948714FF6FF7048F23043AFF20F
:103E6000D45240F21111009078200AF0CDFC4FF6A8
:103E7000FF704FF4FC63AFF2E45240F21111009076
:103E8000AF200AF0C1FC642001F04BFB08BD08B56F
:103E90004FF6FF704FF6E073AFF2142240F2351187
:103EA000009018200AF0B0FC4FF4967001F039FB36
:103EB000FEF7D5FE08BD08B54FF6FF704FF6E0736C
:103EC000AFF2302240F2351100907F200AF09CFCC6
:103ED0004FF4967001F025FB0D48007800EB400090
:103EE0000C4901EB8000094B0ECB0EC000200849A5
:103EF000097801EB4101074A02EB81018871012039
:103F000005490870FEF7ABFE08BD00000401002063
:103F100031000020E000002032000020704770B522
:103F20000546002400BF38E004EB440101EB041116
:103F300005EB810014210BF09EF804EB440101EB2A
:103F4000041105EB810101F1140014210BF093F829
:103F500004EB440101EB041105EB810101F12800A0
:103F60001E210BF088F8002004EB440101EB041142
:103F700005EB810181F8460004EB440101EB0411DB
:103F800005EB810181F8470004EB440101EB0411CA
:103F900005EB81018864601CC4B20A2CC4DB70BDCF
:103FA0002DE9F04704460D4616461F46DDE908890F
:103FB00005EB450101EB051104EB810014223146AC
:103FC0000AF0DAFF05EB450101EB051104EB810175
:103FD00001F11400142239460AF0CEFF05EB450129
:103FE00001EB051104EB810101F128001E2241467D
:103FF0000AF0C2FF012005EB450101EB051104EBBE
:10400000810181F84600002005EB450101EB051117
:1040100004EB810181F8470005EB450000EB05103A
:1040200004EB8000C0F84890BDE8F087012201EB66
:10403000410303EB011300EB830383F84720704730
:10404000002201EB410303EB011300EB830383F830
:1040500047207047002201EB410303EB011300EB03
:10406000830383F846207047012201EB410303EBF1
:10407000011300EB830383F84620704710B500243A
:1040800000BF1FE004EB440000EB0410FE4901EB0D
:10409000800090F84600012812D104EB440000EBA8
:1040A000041001EB800090F84700012808D104EBD0
:1040B000440101EB0411F44A02EB8101886C804752
:1040C000601CC4B20A2CDDDB10BD2DE9F84F05469B
:1040D0000C4617469846DDE90A9A0C9E43463A4636
:1040E00021462846009601F004FD00200090601E45
:1040F00081B243463A46284601F076FE04F10E02AC
:1041000091B205F1140290B253464A4600960AF065
:10411000C6FABDE8F88F2DE9F04188B004460D4697
:10412000174698460E9ED94B0FCBCDE90623CDE915
:10413000040100200290039002A9384604F0D6FE44
:1041400002A904A80AF00CFFD1A104A80AF008FFF4
:1041500005F10C0291B2A21C90B2434604AA00964B
:104160000AF09DFA002005F11F0C1FFA8CF304F1F0
:10417000C90C1FFA8CF205F1090C1FFA8CF104F13D
:10418000630C00901FFA8CF001F02EFE4FF4784083
:1041900005F10A0291B204F15202CDE9000690B293
:1041A0001823BCA202F036F805F11E0C1FFA8CF39E
:1041B00004F1C80C1FFA8CF205F10A0C1FFA8CF1FD
:1041C00004F1640C1FFA8CF0009601F092FC4FF49D
:1041D000FC6005F11E0C1FFA8CF304F1640CBC4466
:1041E0001FFA8CF205F10A0C1FFA8CF104F1640C31
:1041F00000901FFA8CF001F07CFC4FF4784005F140
:104200000A0291B204F1DC02CDE9000690B2182353
:10421000A1A201F0FFFF08B0BDE8F0812DE9FE4347
:1042200005460F46144698460A9E002001900290CB
:1042300001A9601C04F05AFE434601AA39462846EB
:1042400000960AF02CFA04EB440101EB04118E4BAA
:1042500003EB810205F12A0188B2434639460096F4
:104260000AF01DFA04EB440101EB0411864B03EB49
:10427000810101F1140205F18A0188B243463946F1
:1042800000960AF00CFABDE8FE8308B54FF6FF7001
:10429000C023EF2248210090002001F02AFC7F4833
:1042A0000078801E1FD47D480078801E0A281ADC02
:1042B0007A480078801E00EB400101EB0010724943
:1042C00001EB800090F8460001280CD14FF6FF70FA
:1042D000009072480078801EC2B248F230434821F4
:1042E0001220FFF79BFF6D480078401E1ED46B48DC
:1042F0000078401E0A2819DC68480078401E00EB50
:10430000400101EB0010604901EB800090F846008D
:1043100001280BD14FF6FF70009060480078401ED6
:10432000C2B2002360211220FFF778FF5B480078BB
:1043300000281BDB594800780A2817DC574800780A
:1043400000EB400101EB00104F4901EB800090F8B9
:10435000460001280AD14FF6FF704FF478430090D1
:104360004E48027878211220FFF758FF4B4800781A
:10437000401C1ED449480078401C0A2819DC4748D4
:104380000078401C00EB400101EB00103E4901EBBE
:10439000800090F8460001280BD14FF6FF70009086
:1043A0003E480078401CC2B2002390211220FFF743
:1043B00035FF3A480078801C1FD438480078801CAC
:1043C0000A281ADC35480078801C00EB400101EB1C
:1043D00000102D4901EB800090F8460001280CD117
:1043E0004FF6FF7000902D480078801CC2B248F252
:1043F0003043A8211220FFF711FF08BD1FB54FF66B
:10440000FF70002326A23221009006200AF047F90F
:104410004FF6FF70002324A23221009036200AF0CC
:104420003EF94FF6FF70002322A2322100909C201B
:104430000AF035F900204623EF221946009001F0DA
:104440001DFCFFF722FF0020C123EF221946009038
:1044500001F014FC1F20002119A2EA23CDE900215C
:1044600002907722C2210020FFF72FFE4FF4784000
:10447000002116A2EA23CDE900210290EF22C221F9
:104480007820FFF722FE27E01001002098FF0008A7
:10449000200000002D0000002B000000360000204E
:1044A000D0F2BAC500000000D2F4C0D6C3FBB3C638
:1044B00000000000D0DEB8C4CAB1BCE400000000B7
:1044C000A1BE52656E616D65A1BF0000A1BE4465CD
:1044D0006C657465A1BF00004FF6FF700021FDA25E
:1044E000FE4BCDE90032CDE9021030231A46FA2105
:1044F0001820FDF737FD4FF6FF700021F8A2FA4BA8
:10450000CDE90032CDE9021030231A46FA216020AD
:10451000FDF728FD4FF6FF700021F4A2F54BCDE921
:104520000032CDE9021030231A46FA21A820FDF707
:1045300019FD00204FF4A573EF221946009001F0F9
:104540009DFBED48006864214843FE21B0FBF1F07B
:1045500084B24FF6FF700023224640F24B110090C8
:104560001846FFF7D8FD1FBD1FB5E448007800EBE3
:10457000400101EB0010E24901EB800090F8470098
:10458000C8BB0120DD49097801EB410202EB0111B2
:10459000DB4A02EB810181F847004FF6FF700021F2
:1045A000D8A2DA4BCDE90032CDE9021030231A4609
:1045B000FA216020FDF7D6FCD5480078012816D1F5
:1045C0000020D34908700120D24908704FF4FA70D6
:1045D00000F0A7FFC949097801EB410202EB011184
:1045E000C74A02EB810101F1280009F0CCFA012051
:1045F000C84908702BE0FFE7C048007800EB400195
:1046000001EB0010BE4901EB800090F84700012843
:104610001DD10020B949097801EB410202EB0111DB
:10462000B74A02EB810181F847004FF6FF70002185
:10463000ABA2AD4BCDE90032CDE9021030231A46D2
:10464000FA216020FDF78EFC0020B24908704FF47B
:10465000FA7000F066FF1FBD1FB50024AE48C08889
:104660004838182190FBF1F0C4B2052C3BD2DFE8AA
:1046700004F0033B7387BF00A0480078801E32D44B
:104680009E480078801E00EB400101EB00109C4921
:1046900001EB800090F84600012824D100209749C2
:1046A000097801EB410202EB0111954A02EB81010D
:1046B00081F8470091480078801E904908700120D9
:1046C000934908704FF6FF70002185A2864BCDE913
:1046D0000032CDE9021030231A46FA216020FDF79E
:1046E00041FCFFF7D2FDBBE084480078401E32D485
:1046F00082480078401E00EB400101EB0010804929
:1047000001EB800090F84600012824D100207B496D
:10471000097801EB410202EB0111794A02EB8101B8
:1047200081F8470075480078401E744908700120E0
:10473000774908704FF6FF70002169A26A4BCDE9F6
:104740000032CDE9021030231A46FA216020FDF72D
:1047500009FCFFF79AFD83E06848007800280EDB2B
:104760006648007800EB400101EB0010644901EB62
:10477000800090F84600012801D1FFF7F5FE6FE0B8
:104780005E480078401C32D45C480078401C00EB46
:10479000400101EB00105A4901EB800090F84600FF
:1047A000012824D100205549097801EB410202EB90
:1047B0000111534A02EB810181F847004F4800780C
:1047C000401C4E4908700120514908704FF6FF7097
:1047D000002143A2444BCDE90032CDE90210302341
:1047E0001A46FA216020FDF7BDFBFFF74EFD37E0CA
:1047F00042480078801C32D440480078801C00EB8E
:10480000400101EB00103E4901EB800090F84600AA
:10481000012824D100203949097801EB410202EB3B
:104820000111374A02EB810181F8470033480078D3
:10483000801C324908700120354908704FF6FF701E
:10484000002127A2284BCDE90032CDE90210302308
:104850001A46FA216020FDF785FBFFF716FD00BF21
:1048600000BF4FF4967000F05CFE1FBD2DE9FE43C3
:1048700005460F46144698460A9E00200190029075
:1048800001A9601C04F032FB434601AA39462846C0
:10489000009609F004FF04EB440101EB04111F4BE7
:1048A00003EB810205F12A0188B24346394600969E
:1048B00009F0F5FE04EB440101EB0411174B03EB87
:1048C000810101F1140205F18A0188B2434639469B
:1048D000009625E0C9CFD2BBCAD700001CA60408A9
:1048E000B2A5B7C5000000001CB80408CFC2D2BBF7
:1048F000CAD700001C9404083C00002036000020A9
:1049000010010020D4DDCDA3000000001CCA040863
:1049100039000020380000206A0000200804002030
:1049200009F0BDFEBDE8FE8308B54FF6FF70C02359
:10493000EF2248210090002001F0DBF8F8480078D1
:10494000801E1FD4F6480078801E0A281ADCF4481E
:104950000078801E00EB400101EB0010F14901EBF3
:10496000800090F8460001280CD14FF6FF700090AF
:10497000EB480078801EC2B248F230434821122032
:10498000FFF774FFE6480078401E1ED4E448007824
:10499000401E0A2819DCE2480078401E00EB400166
:1049A00001EB0010DF4901EB800090F84600012880
:1049B0000BD14FF6FF700090D9480078401EC2B26C
:1049C000002360211220FFF751FFD548007800280E
:1049D0001BDBD34800780A2817DCD148007800EBAD
:1049E000400101EB0010CF4901EB800090F8460038
:1049F00001280AD14FF6FF704FF478430090C84861
:104A0000027878211220FFF731FFC5480078401C5A
:104A10001ED4C3480078401C0A2819DCC04800781E
:104A2000401C00EB400101EB0010BE4901EB80008F
:104A300090F8460001280BD14FF6FF700090B8485F
:104A40000078401CC2B2002390211220FFF70EFF15
:104A5000B3480078801C1FD4B1480078801C0A2815
:104A60001ADCAF480078801C00EB400101EB00101D
:104A7000AC4901EB800090F8460001280CD14FF6BC
:104A8000FF700090A6480078801CC2B248F2304304
:104A9000A8211220FFF7EAFE08BD70B505460024E4
:104AA00000BF26E004EB440000EB041005EB80009F
:104AB00090F84600D8B9092C19D0621C02EB4203C9
:104AC00003EB021205EB820104EB440202EB041239
:104AD00005EB82004C220AF094FA0021601C00EBE6
:104AE000400202EB001005EB800080F84610601CCD
:104AF000C4B20A2CD6DB70BD10B58AB0044604F0EF
:104B000069FA8949088801A904F0F0F9864988788A
:104B100008A904F0EBF98449C87806A904F0E6F97D
:104B2000AFF2906101A80AF01BFA08A901A80AF0E7
:104B300017FAAFF2A06101A80AF012FA06A901A8BB
:104B40000AF00EFAAFF2B86101A80AF009FA1422CD
:104B500001A904F114000AF054FA0AB010BD10B50E
:104B6000002472A001F099FB01E0601CC4B204EBC8
:104B7000440000EB0410724901EB800090F84600FD
:104B8000012801D10A2CF0DB0A2C2EDA64490978BD
:104B900001EB410202EB0111624A02EB8100FFF7D7
:104BA000ABFF5F4A127802EB420303EB02125D4B4C
:104BB00003EB820104EB440202EB0412604B03EBB3
:104BC00082004C220AF01DFA00205549097801EBB9
:104BD000410202EB0111534A02EB810181F84600C8
:104BE0001046FFF75AFFFFF79FFE56A001F055FB56
:104BF0004FF47A7000F095FC10BD10B500245648B3
:104C0000C0884838182190FBF1F0C4B2052C1DD2A1
:104C1000DFE804F0031D374B650041480078801E33
:104C200014D43F480078801E00EB400101EB0010D7
:104C30003C4901EB800090F84600012806D1384835
:104C40000078801E36490870FFF76EFE61E0344838
:104C50000078401E14D432480078401E00EB40011A
:104C600001EB00102F4901EB800090F8460001286D
:104C700006D12B480078401E29490870FFF754FEE2
:104C800047E02748007800280EDB2548007800EB35
:104C9000400101EB0010234901EB800090F8460031
:104CA000012801D1FFF75BFF33E01D480078401C6D
:104CB00014D41B480078401C00EB400101EB0010AD
:104CC000184901EB800090F84600012806D11448ED
:104CD0000078401C12490870FFF726FE19E01048C2
:104CE0000078801C14D40E480078801C00EB400132
:104CF00001EB00100B4901EB800090F84600012801
:104D000006D107480078801C05490870FFF70CFEA3
:104D100000BF00BF4FF4967000F003FC10BD000010
:104D200037000020080400209E000020D5FDD4DAC2
:104D3000B5C8B4FDCCEDBCD3D2F4C0D6A3A100005D
:104D400010010020D2F4C0D6D2D1B3C9B9A6CCED9F
:104D5000BCD3A3A1000000006A0000201CB5ED48F0
:104D6000FFF7DDF8EC48FFF7DAF8AFF64F60EBA19C
:104D7000EEA3F1A2CDE900100021E648FFF710F9FB
:104D8000AFF66760EEA1F2A3F4A2CDE90010012115
:104D9000E048FFF705F9AFF67B60F3A1ECA3F6A2BC
:104DA000CDE900100221DB48FFF7FAF8AFF6936077
:104DB000F3A1E7A3F6A2CDE900100321D548FFF740
:104DC000EFF8AFF6A760F5A1E1A3F8A2CDE90010D6
:104DD0000421D048FFF7E4F8AFF6BF60F5A1DCA3EB
:104DE000F8A2CDE900100021CB48FFF7D9F8AFF6C3
:104DF000D360F7A1D6A3FAA2CDE900100121C648DD
:104E0000FFF7CEF8AFF6EB60F8A1D1A3FBA2CDE996
:104E100000100221C048FFF7C3F8AFF6FF60FAA107
:104E2000CBA3FDA2CDE900100321BB48FFF7B8F8E2
:104E30001CBD10B504463FE0FA488088BE2812DB4E
:104E4000F8488088EF280EDCF648C08800280ADB86
:104E5000F448C088462806DC012020704FF4967084
:104E600000F05FFB25E0EF48808800280EDBED486E
:104E70008088EF280ADCEB48C088482806DBE94830
:104E8000C088C02802DCFFF7B8FE12E0E548808841
:104E90003C280EDBE3488088B3280ADCE148C08860
:104EA000FE2806DBDF48C088B0F5937F01DCFFF702
:104EB00056FE0020DC490870DB4800780128BBD092
:104EC00010BD0EB54FF6FF7040F27113EF2219219D
:104ED0000090002000F00DFE4FF6FF700023D3A2DB
:104EE00018210090502009F08FFCD3481423182279
:104EF00011460090D22000F0E8FF00202C23EF2282
:104F00001946009000F0BAFE4FF6FF700023AFF68E
:104F1000702232210090062009F0C1FB4FF6FF708D
:104F20000023AFF67C2232210090362009F0B7FB37
:104F30004FF6FF700023AFF68422322100909C20B0
:104F400009F0ADFB00204623EF221946009000F047
:104F500095FEFFF7E9FC0020C123EF2219460090DF
:104F600000F08CFE1F200021B4A24FF49373CDE912
:104F700000210290B322FE213C20FFF7A6F80EBDCF
:104F800008B500200090FFF79CFF04E003F0D1F883
:104F90006846FFF74EFF9DF800000028F6D0FDF7A9
:104FA000DDF808BD10B5002401E0601CC4B204EBBC
:104FB000440000EB0410584901EB800090F84600D3
:104FC000012801D10A2CF0DB0A2C42DA9E48007835
:104FD00000EB400101EB00104E4901EB800090F81E
:104FE000470090BB9849097801EB410202EB01119F
:104FF000484A02EB8100FFF77FFD934A127802EBEB
:10500000420303EB0212434B03EB820104EB440225
:1050100002EB0412404B03EB82004C2209F0F1FF3B
:1050200000208949097801EB410202EB0111394A5C
:1050300002EB810181F846001046FFF72EFDFFF7D5
:1050400024F982A001F029F903E0FFE784A001F030
:1050500024F94FF47A7000F064FA10BD1FB57A4855
:105060000078401E26D400207749097801EB4102E0
:1050700002EB0111274A02EB810181F847004FF64C
:10508000FF700021AFF2A8727B4BCDE90032CDE971
:10509000021030231A46FA216020FCF763FF01203A
:1050A0007649087068480078401E67490870FFF725
:1050B000ECF802E072A001F0F0F84FF4967000F006
:1050C00030FA1FBD1FB560480078401C0A2820DA5E
:1050D0005D480078401C00EB400101EB00100D49D9
:1050E00001EB800090F84600012812D100205649BB
:1050F000097801EB410202EB0111064A02EB810142
:1051000081F847004FF6FF700021AFF62C025A4B92
:10511000C2E0D6E01001002008040020303A2F3011
:10512000312F2831292E6D70330000003230313993
:105130002F31302F31390000B0CDB1C8C1FA000095
:10514000303A2F30312F2832292E6D703300000075
:10515000323031392F31302F39000000B4C1D2AF95
:10516000C4E3B5C400000000303A2F30312F28339B
:10517000292E6D7033000000B8DFC9D00000000098
:10518000303A2F30312F2834292E6D703300000033
:10519000C5B7BFCBB8C2B8C200000000303A2F304C
:1051A000312F2835292E6D7033000000D6D0B9FA82
:1051B000D0EC0000303A2F30312F2836292E6D7078
:1051C00033000000B3D4BCA6C9F1C7FA0000000048
:1051D000303A2F30312F2837292E6D7033000000E0
:1051E000B6AFCEEFCAC0BDE700000000303A2F30A6
:1051F000312F2838292E6D7033000000C0E8C3F726
:10520000B8C2B8C200000000303A2F30312F283920
:10521000292E6D7033000000CFF1B7E7D2BBD1F972
:10522000000000006A00002068000020D4C6D2F40C
:10523000C0D6BFE2000000001C7604084164642070
:105240006D7573696320000036000020D2F4C0D66B
:10525000D2D1B3C9B9A6C9BEB3FDA3A10000000055
:10526000D2F4C0D6D5FDD4DAB2A5B7C5A3ACC9BEB9
:10527000B3FDCAA7B0DC00001CB804083900002048
:10528000C7B0C3E6D2D1BEADC3BBD3C3B8E8C7FA7B
:10529000C1CBA3A100000000CDE90032CDE902108E
:1052A00030231A46FA216020FCF75CFE01205249A7
:1052B000087052480078401C50490870FEF7E5FF1E
:1052C00002E04FA000F0E9FF4FF4967000F029F9DA
:1052D0001FBD38B550488088642808DA4F480068F8
:1052E00030B34E480068401E4C49086020E04A48F0
:1052F0008088C82809DD49480068FE2818D2474838
:105300000068401C4549086012E0434880886428D2
:105310000EDB41488088C8280ADC3F488088643812
:10532000C0EBC0104000642190FBF1F03B490860E5
:105330003A49087808F061FA38480068642148431F
:10534000FE21B0FBF1F084B24FF6FF70002322463D
:1053500040F24B1100901846FEF7DDFE0B2000F0E6
:10536000E0F838BD08B53C202D49088073202D4950
:1053700008804FF6FF70EA23EF22C2210090002040
:1053800000F0B7FB4FF6FF7090238C22782100903D
:105390003C2000F0AEFBFBF7F0FAFBF739FA08BD52
:1053A00010B51421204809F066FEFDF758FC0020D6
:1053B0001E4908704FF4967000F0B3F810BD10B598
:1053C0000E49097801EB410202EB0111184A02EB88
:1053D00081001422144909F014FE0849097801EBF0
:1053E000410202EB0111124A02EB8100FFF784FB3C
:1053F000FFF7D6FF10BD0000390000203600002066
:10540000BAF3C3E6D2D1BEADC3BBD3C3B8E8C7FAC3
:10541000C1CBA3A1000000006A0000203C000020D6
:105420000A0000200C0000200007002034000020AB
:10543000100100201D48006840F480301B490860BE
:1054400000BF1A480068C0F3404090F00100F8D156
:105450003220174908601548406840F480301349ED
:1054600048600846406840F4E0104860084600681C
:1054700040F08070086000BF0C480068C0F3006016
:1054800090F00100F8D10948406840F00200074957
:10549000486000BF0548406800F00800800801D15E
:1054A000012000E000200228F4D0704700100240E4
:1054B00000200240C21700EB5272C2F3C7022A4B0F
:1054C0001A701946097801EB4102C2EBC1114FF67F
:1054D000FF7202EAC101254A118070470146224A43
:1054E00012784A434FF0E0235A6100229A611A462B
:1054F000126942F001021A6100BF4FF0E022106908
:1055000010F0010F02D010F4803FF6D04FF0E022EF
:10551000126922F001024FF0E0231A6100229A6121
:1055200070470146114A12884A434FF0E0235A61FE
:1055300000229A611A46126942F001021A6100BF04
:105540004FF0E022106910F0010F02D010F4803FFC
:10555000F6D04FF0E022126922F001024FF0E02372
:105560001A6100229A617047440000204600002022
:1055700008B501214FF4B07001F037F84CF23370E8
:10558000ADF8000018208DF8030003208DF802000C
:105590006946FE4801F0F4F84FF68070ADF800005F
:1055A00018208DF8030003208DF802006946F848A2
:1055B00001F0E6F841F20100ADF8000018208DF886
:1055C000030003208DF802006946F24801F0D8F884
:1055D00008BD00B59DB00121080200F0F9FF0120CF
:1055E0000790002008900F20099000200A900B904F
:1055F0000C900D9015200090019005200290002045
:10560000039004900590069006200E9000200F90C5
:10561000109010201190002012901490139015906B
:1056200016904FF480501790002018904FF480404F
:10563000199000201A9007A81B90CDF870D00EA8E2
:1056400001F039FA0121062001F096FB1DB000BDE2
:10565000D14908807047D049891C0880704700B53F
:1056600003460A461846FFF7F3FF1046FFF7F3FF1D
:1056700000BD10B501460023CA0AC1F3451401F06C
:105680001F03500340EA841040EA430010BDC249A2
:10569000891C08807047C048801C0088704700B58E
:1056A0000246B2B90120FFF7D3FF4FF48070FFF735
:1056B000D2FF0320FFF7CCFF41F23000FFF7CBFF12
:1056C0004FF4C870B5494880F020088000208871E8
:1056D00014E00120FFF7BCFF0020FFF7BCFF032010
:1056E000FFF7B6FF41F23800FFF7B5FFF020AB49F6
:1056F00048804FF4C87008800120887100BD30B523
:1057000005460C46A548807950BB4FF40470FFF75E
:105710009FFF2846FFF79FFF40F21120FFF798FFF9
:105720001046FFF798FF40F21220FFF791FF204646
:10573000FFF791FF40F21320FFF78AFF1846FFF7AB
:105740008AFF4FF40070FFF783FF2846FFF783FFBF
:1057500040F20120FFF77CFF2046FFF77CFF29E0A5
:1057600040F21220FFF774FF2846FFF774FF40F263
:105770001320FFF76DFF1046FFF76DFF4FF4047025
:10578000FFF766FF2046FFF766FF40F21120FFF7A4
:105790005FFF1846FFF75FFF40F20120FFF758FF59
:1057A0002846FFF758FF4FF40070FFF751FF2046DF
:1057B000FFF751FF40F20220FFF74AFF30BD70B5FE
:1057C000064676484088401E83B274480088401ED2
:1057D00082B200210846FFF792FF00240CE000256A
:1057E00004E03046FFF753FF681C85B26B484088E1
:1057F000A842F6DC601C84B268480088A042EEDC57
:1058000070BD10B5FFF7B4FEFFF7E3FE3220FFF7DF
:1058100088FE0020FFF71CFFFFF73DFF5F498880EF
:105820000020FFF715FF0020FFF712FF0A20FFF707
:1058300078FE0020FFF70CFF0020FFF709FF002093
:10584000FFF706FF0020FFF703FF0020FFF700FF30
:105850000020FFF7FDFE0020FFF7FAFE0020FFF713
:10586000F7FE0A20FFF75DFE4FF48060FFF7F0FEC1
:105870004FF4C440FFF7EFFE0820FFF7E9FE40F6C3
:105880000800FFF7E8FE4FF44070FFF7E1FE052047
:10589000FFF7E1FE40F20130FFF7DAFE44F6064082
:1058A000FFF7D9FE40F20230FFF7D2FE40F202606D
:1058B000FFF7D1FE40F20330FFF7CAFE40F20C5072
:1058C000FFF7C9FE4FF44170FFF7C2FE4FF44C5092
:1058D000FFF7C1FE40F20530FFF7BAFE40F6054083
:1058E000FFF7B9FE40F20630FFF7B2FE44F20620A1
:1058F000FFF7B1FE40F20730FFF7AAFE40F20C605E
:10590000FFF7A9FE4FF44270FFF7A2FE4FF4A0602C
:10591000FFF7A1FE40F20930FFF79AFE3320FFF7B0
:105920009AFE1020FFF794FE1420FFF794FE11203A
:10593000FFF78EFE40F20110FFF78DFE1220FFF7F9
:1059400087FE0020FFF787FE1320FFF781FE01206E
:10595000FFF781FE4FF48070FFF77AFE4FF44C7032
:10596000FFF779FE40F20110FFF772FE40F2472088
:10597000FFF771FE40F20310FFF76AFE4FF480500C
:10598000FFF769FE4FF420700AE0000000140140A8
:105990000018014000200140FE07006C4C00002070
:1059A000FFF756FE4FF45E40FFF755FE4FF481704F
:1059B000FFF74EFE4DF2B010FFF74DFE0A20FFF745
:1059C000B0FD0120FFF744FE4FF48070FFF743FE67
:1059D0000220FFF73DFE4FF48070FFF73CFE0320EE
:1059E000FFF736FE41F23000FFF735FE0920FFF7E2
:1059F0002FFE0120FFF72FFE0C20FFF729FE0020CD
:105A0000FFF729FE9020FFF723FE4FF40040FFF739
:105A100022FE0F20FFF71CFE0020FFF71CFE4FF4B4
:105A20000470FFF715FE0020FFF715FE40F211206D
:105A3000FFF70EFEEF20FFF70EFE40F21220FFF7F9
:105A400007FE0020FFF707FE40F21320FFF700FEDD
:105A500040F28F10FFF7FFFD4FF4A060FFF7F8FD55
:105A60000020FFF7F8FD40F20150FFF7F1FD0020A4
:105A7000FFF7F1FD40F20250FFF7EAFD5F20FFF76C
:105A8000EAFD40F20140FFF7E3FD0120FFF7E3FDEF
:105A900040F20440FFF7DCFD0020FFF7DCFD0A20A8
:105AA000FFF73FFD0720FFF7D3FD4FF48070FFF7AE
:105AB000D2FD0A20FFF735FD4FF40070FFF7C8FD57
:105AC0000020FFF7C8FD40F20120FFF7C1FD0020D4
:105AD000FFF7C1FD0A20FFF724FD40F20220FFF787
