:10091500D2BBBCB6BFDAC1EEA3BAD0A1D2BB0D0A19
:1009250000B6FEBCB6BFDAC1EEA3BA31A1A2B1A82A
:10093500CAB10D0A000932A1A2CEC4B1BE0D0A008A
:100945000933A1A2D2F4C0D60D0A000934A1A2CE62
:10095500C2CAAAB6C80D0A00202035A1A2CAB1D6BE
:10096500D30D0A000936A1A2BFAAB5C60D0A000912
:1009750037A1A2B9D8B5C60D0A000938A1A2D6D8A3
:10098500C6F40D0A0048656C6C6F00547874004716
:1009950069766554696D65004D75736963005465C5
:1009A5006D706572617475726520416E642048755D
:1009B5006D696469747900436C6F636B004C6564A1
:1009C5004F6E004C65644F66660052657365740032
:1009D5004572726F72004669727374204C65766554
:0209E5006C00A4
:06114600011C00011B006A
:100B5800E4F5091211041210E7120FD2121077E40B
:100B6800781CF67BFF7A09791512109E7BFF7A09AB
:100B7800792612109E7BFF7A09793A12109E7BFF24
:100B88007A09794512109E7BFF7A09795012109ED6
:100B98007BFF7A09795D12109E7BFF7A09796912C9
:100BA800109E7BFF7A09797412109E7BFF7A09796F
:100BB8007F12109E781CE61460FA24F1601824DF76
:100BC80060F224317020781C7601120F3FEF70E438
:100BD800781C763180DE121167781EEFF6120AA4AF
:0C0BE800E4781CF680CEE4781CF680C88F
:10110400B2C212112EB2C212112EB2C212112EB2DA
:0C111400C212112EB2C212112EB2C22261
:1010E7007580FFE4F59075A0FF75B0FF75C0FF75BB
:0D10F70092FFF591C2C3D289D2A8D2AF22D8
:0A113B0000007F057E49DEFEDFFCA8
:011145002287
:0810C3008F148E138D128C11A5
:1010CB00E4F515F516F517F518781174FF120829C4
:0B10DB00EC4D4E4F600512113B80EE03
:0110E60022E7
:0C112E007F117ED07D1BDDFEDEFCDFFAB1
:01113A002292
:03000300021013D5
:10101300C0E0C0F0C083C082C0D075D000C000C0A3
:1010230001C002C003C004C005C006C007120D2CD6
:10103300D007D006D005D004D003D002D001D00011
:0B104300D0D0D082D083D0F0D0E032BB
:100AA4008F0AE50A700F751B017BFF7A09798A1298
:100AB400109EC2C222E51B64016003020B4EF51BAB
:100AC400D2C2E50A24FE602624FE602E1460372478
:100AD400EF603F14604824E8605024F06058243EDE
:100AE40070607BFF7A09799012109ED290227BFF6E
:100AF4007A09799412109ED291227BFF7A09799D0A
:100B040012109ED292227BFF7A0979A312109EC200
:100B140092227BFF7A0979BC12109ED293227BFF2A
:100B24007A0979C212109ED294227BFF7A0979C87D
:100B340012109ED295227BFF7A0979CF12109ED291
:100B440096227BFF7A0979D580067BFF7A0979DBC7
:040B540012109E22BB
:1009E7007869616F2079690000000000000000004D
:1009F7000000000062616F2073686900000000005A
:100A0700000000000000000077656E2062656E0040
:100A170000000000000000000000000079696E205F
:100A2700797565000000000000000000000000006C
:100A370077656E2073686920647500000000000008
:100A470000000000736869207A686F6E6700000015
:100A570000000000000000006B61692064656E679C
:100A67000000000000000000000000006775616ED4
:100A77002064656E670000000000000000000000B1
:100A8700667520776569000000000000000000001F
:0D0A970000000000000201040516172F3FAB
:100FD200D2B57F017E007D007C001210C3C2B57FB6
:100FE200017E007D007C001210C3D2B57F017E001D
:100FF2007D007C001210C3C2A17F017E007D007CB7
:10100200001210C3D2A17F017E007D007C0002107D
:01101200C31A
:100BF4007F0612115C7D357F171211517F0A7E002A
:100C04007D007C001210C37F0612115C7D037F8976
:100C14001211517F057E007D007C001210C37D43BC
:100C24007FCF1211517F057E007D007C001210C31E
:100C34007D027FCB1211517D0A7F11121151E4FD07
:100C44007F1E1211517D3F7F191211517D487F1B68
:100C54001211517D1F7F1D1211517F0A7E007D00EC
:100C64007C001210C37D047FCD1211517F057E00DC
:100C74007D007C001210C3E4FD7FB91211517D4F39
:0C0C84007FCF1211517DFF7F6F021151D4
:100EE000120BF4E4FD7FBD1211517D487F171211E2
:100EF000517F0A7E007D007C001210C37D807F3C04
:100F00001211517D077F3E1211517DFF7F38121162
:100F1000517D077F3A121151E4FD7F401211517D3E
:100F2000087F42121151E4FD7F441211517D087F68
:0F0F3000461211517F017E007D007C000210C32C
:100D2C00E4F508C2A87F2B12115C781DA607E4FD20
:100D3C007F29121151E4FD7F02121151781DE6300A
:100D4C00E42D7FB212115CEF642170237FBF12116E
:100D5C005CBF351B7FBA12115C8F08E508D3940079
:100D6C00400DE508D394045006781C761080047866
:100D7C001C7611E4FD7F2B121151E4FD7F1C121126
:100D8C0051E4FD7F29121151E4FD7F02121151E44F
:100D9C00FD7F2B121151E4FD7FBA121151E4FD7F3E
:100DAC00BC1211517D017F08121151E4FD7F081214
:040DBC001151D2A857
:010DC0002210
:100F3F00E4F50AF50BF50A12116D7F327E007D0084
:100F4F007C001210C3120C90EF700280117F0A7E8A
:100F5F00007D007C001210C3120DC1EF7010120F34
:100F6F00D27F327E007D007C001210C38005750B8E
:0E0F7F00018009050AE50AC3940540BBAF0BCB
:010F8D002241
:10104E00E4F510F50F7FB212115CBF21057510018A
:10105E0080147F0A7E007D007C001210C3050FE510
:08106E000FC3940A40DFAF102C
:011076002257
:03116D00020EE08F
:100DC100C2A87D557F351211517D097F1C12115129
:100DD1007D207FBD1211517D017F081211517F01CC
:100DE1007E007D007C001210C3E4FD7F08121151CA
:100DF1007F017E007D007C001210C312104EEF7047
:100E010002FF227D0B7F1C1211517DFF7FB2121157
:100E1100517F017E007D007C001210C37D067F376B
:100E21001211517F017E007D007C001210C37D06EE
:100E31007F371211517F057E007D007C001210C3A7
:100E41007D107F29121151E4FD7FBD121151D2A8ED
:030E51007F0122FC
:100C9000750D01E4F50C12104EEF7005F50D020D07
:100CA00029E50C900A9B93FD7FC1121151E4FD7F51
:100CB000C31211517D047F081211517F017E007D06
:100CC000007C001210C3E4FD7F081211517F017EE9
:100CD000007D007C001210C3E4F50EE50C75F014E5
:100CE000A424E7F582E43409F583E582250EF58234
:100CF000E43583F583E493FD600E7F051211510501
:100D00000EE50EC3941440D3AD0E7FB91211517D80
:100D1000FF7FB21211517D047F37121151050CE58E
:0B0D20000CC394095003020C96AF0DA9
:010D2B0022A5
:061167007FC512115C229D
:0B115100908100EFF0908000EDF02294
:0B115C00908100EFF0908000E0FF2287
:04114C0002192580DF
:10107700759850758920AE19AF1AAB07AA06E4F91F
:10108700F8FF7EE1FDFC120F8E1208198F8B8F8DF2
:07109700D28ED2ACD2AF22D1
:0300230002117057
:01117000324C
:0E112000C2ACC2998F993099FDC299D2AC220F
:10109E008B0B8A0C890DAB0BAA0CA90D12080060E4
:1010AE0013050DE50D7002050C14F9120800FF1260
:0510BE00112080E22278
:03000000020E5499
:0C0E5400787FE4F6D8FD75811E020E9B2D
:10080000BB010689828A83E0225002E722BBFE02F6
:09081000E32289828A83E4932229
:100F8E00C2D5E830E70FB2D5E4C39BFBE49AFAE48E
:100F9E0099F9E498F8EC30E717B2D5120FC412089D
:100FAE0083E4C39BFBE49AFAE499F9E498F880038E
:100FBE0012088330D50DE4C39FFFE49EFEE49DFD31
:040FCE00E49CFC2281
:0E081900C3E49FFFE49EFEE49DFDE49CFC22F0
:100827007401FF3395E0FEFDFC080808E6CF2FF6BC
:1008370018E6CE3EF618E6CD3DF618E6CC3CF62295
:100E6000020B58E493A3F8E493A34003F68001F245
:100E700008DFF48029E493A3F85407240CC8C33393
:100E8000C4540F4420C8834004F456800146F6DF62
:100E9000E4800B0102040810204080901146E47E9B
:100EA000019360BCA3FF543F30E509541FFEE49357
:100EB000A360010ECF54C025E060A840B8E493A31E
:100EC000FAE493A3F8E493A3C8C582C8CAC583CA49
:100ED000F0A3C8C582C8CAC583CADFE9DEE780BE01
:01115000009E
:1008470075F008758200EF2FFFEE33FECD33CDCC68
:1008570033CCC58233C5829BED9AEC99E5829840EB
:100867000CF582EE9BFEED9AFDEC99FC0FD5F0D6C8
:10087700E4CEFBE4CDFAE4CCF9A88222B800C1B9F2
:100887000059BA002DEC8BF084CFCECDFCE5F0CB30
:10089700F97818EF2FFFEE33FEED33FDEC33FCEB69
:1008A70033FB10D703994004EB99FB0FD8E5E4F924
:1008B700FA227818EF2FFFEE33FEED33FDEC33FC11
:1008C700C933C910D7059BE99A4007EC9BFCE99A05
:1008D700F90FD8E0E4C9FAE4CCFB2275F010EF2F4A
:1008E700FFEE33FEED33FDCC33CCC833C810D7074A
:1008F7009BEC9AE899400AED9BFDEC9AFCE899F885
:0E0907000FD5F0DAE4CDFBE4CCFAE4C8F92217
:00000001FF
